{
  "contractName": "MayorMultipleCandidates",
  "abi": [
    {
      "inputs": [
        {
          "internalType": "address payable",
          "name": "_escrow",
          "type": "address"
        },
        {
          "internalType": "uint32",
          "name": "_quorum",
          "type": "uint32"
        }
      ],
      "stateMutability": "nonpayable",
      "type": "constructor"
    },
    {
      "anonymous": false,
      "inputs": [
        {
          "indexed": false,
          "internalType": "uint256",
          "name": "count",
          "type": "uint256"
        }
      ],
      "name": "CandidateCounts",
      "type": "event"
    },
    {
      "anonymous": false,
      "inputs": [
        {
          "indexed": false,
          "internalType": "address",
          "name": "_escrow",
          "type": "address"
        }
      ],
      "name": "Drawn",
      "type": "event"
    },
    {
      "anonymous": false,
      "inputs": [
        {
          "indexed": false,
          "internalType": "address",
          "name": "_voter",
          "type": "address"
        }
      ],
      "name": "EnvelopeCast",
      "type": "event"
    },
    {
      "anonymous": false,
      "inputs": [
        {
          "indexed": false,
          "internalType": "address",
          "name": "_voter",
          "type": "address"
        },
        {
          "indexed": false,
          "internalType": "uint256",
          "name": "_soul",
          "type": "uint256"
        },
        {
          "indexed": false,
          "internalType": "address",
          "name": "_candidate",
          "type": "address"
        }
      ],
      "name": "EnvelopeOpen",
      "type": "event"
    },
    {
      "anonymous": false,
      "inputs": [
        {
          "indexed": false,
          "internalType": "address",
          "name": "_candidate",
          "type": "address"
        }
      ],
      "name": "NewMayor",
      "type": "event"
    },
    {
      "anonymous": false,
      "inputs": [
        {
          "indexed": false,
          "internalType": "address",
          "name": "_escrow",
          "type": "address"
        }
      ],
      "name": "Sayonara",
      "type": "event"
    },
    {
      "inputs": [
        {
          "internalType": "uint256",
          "name": "",
          "type": "uint256"
        }
      ],
      "name": "candidate_list",
      "outputs": [
        {
          "internalType": "address payable",
          "name": "",
          "type": "address"
        }
      ],
      "stateMutability": "view",
      "type": "function"
    },
    {
      "inputs": [],
      "name": "escrow",
      "outputs": [
        {
          "internalType": "address payable",
          "name": "",
          "type": "address"
        }
      ],
      "stateMutability": "view",
      "type": "function"
    },
    {
      "inputs": [
        {
          "internalType": "address payable",
          "name": "_candidate",
          "type": "address"
        }
      ],
      "name": "add_candidate",
      "outputs": [],
      "stateMutability": "payable",
      "type": "function"
    },
    {
      "inputs": [],
      "name": "get_candidate_count",
      "outputs": [
        {
          "internalType": "uint256",
          "name": "",
          "type": "uint256"
        }
      ],
      "stateMutability": "view",
      "type": "function"
    },
    {
      "inputs": [
        {
          "internalType": "address",
          "name": "_candidate",
          "type": "address"
        }
      ],
      "name": "get_candidate_vote_count",
      "outputs": [
        {
          "internalType": "uint256",
          "name": "",
          "type": "uint256"
        }
      ],
      "stateMutability": "view",
      "type": "function"
    },
    {
      "inputs": [
        {
          "internalType": "bytes32",
          "name": "_envelope",
          "type": "bytes32"
        }
      ],
      "name": "cast_envelope",
      "outputs": [],
      "stateMutability": "nonpayable",
      "type": "function"
    },
    {
      "inputs": [
        {
          "internalType": "uint256",
          "name": "_sigil",
          "type": "uint256"
        },
        {
          "internalType": "address",
          "name": "_candidate",
          "type": "address"
        }
      ],
      "name": "open_envelope",
      "outputs": [],
      "stateMutability": "payable",
      "type": "function"
    },
    {
      "inputs": [
        {
          "internalType": "uint256",
          "name": "idx",
          "type": "uint256"
        }
      ],
      "name": "get_candidate_using_idx",
      "outputs": [
        {
          "internalType": "address",
          "name": "",
          "type": "address"
        }
      ],
      "stateMutability": "view",
      "type": "function"
    },
    {
      "inputs": [],
      "name": "mayor_or_sayonara",
      "outputs": [],
      "stateMutability": "nonpayable",
      "type": "function"
    },
    {
      "inputs": [
        {
          "internalType": "uint256",
          "name": "_sigil",
          "type": "uint256"
        },
        {
          "internalType": "address",
          "name": "_candidate",
          "type": "address"
        },
        {
          "internalType": "uint256",
          "name": "_soul",
          "type": "uint256"
        }
      ],
      "name": "compute_envelope",
      "outputs": [
        {
          "internalType": "bytes32",
          "name": "",
          "type": "bytes32"
        }
      ],
      "stateMutability": "pure",
      "type": "function"
    }
  ],
  "bytecode": "0x60806040526007805460ff1916905534801561001a57600080fd5b506040516110dd3803806110dd8339810160408190526100399161009c565b600580546001600160a01b0319166001600160a01b0393909316929092179091556040805160808101825263ffffffff909216808352600060208401819052918301829052606090920152600680546001600160801b03191690911790556100e8565b600080604083850312156100ae578182fd5b82516001600160a01b03811681146100c4578283fd5b602084015190925063ffffffff811681146100dd578182fd5b809150509250929050565b610fe6806100f76000396000f3fe6080604052600436106100915760003560e01c80638e575939116100595780638e57593914610149578063bab2ec471461015c578063c586ff671461017c578063d1244de91461019c578063e2fdcc17146101d657600080fd5b806305698612146100965780631c9a34e3146100ad5780633ce2c4bf146100cd57806343c89d02146100fe5780635a26164b14610136575b600080fd5b3480156100a257600080fd5b506100ab6101f6565b005b3480156100b957600080fd5b506100ab6100c8366004610e8d565b610770565b3480156100d957600080fd5b50600654600160601b900463ffffffff165b6040519081526020015b60405180910390f35b34801561010a57600080fd5b5061011e610119366004610e8d565b6108e6565b6040516001600160a01b0390911681526020016100f5565b6100ab610144366004610ea5565b610910565b6100ab610157366004610e6a565b610bad565b34801561016857600080fd5b5061011e610177366004610e8d565b610d72565b34801561018857600080fd5b506100eb610197366004610ed4565b610db0565b3480156101a857600080fd5b506100eb6101b7366004610e6a565b6001600160a01b03166000908152600160208190526040909120015490565b3480156101e257600080fd5b5060055461011e906001600160a01b031681565b600654600160401b810463ffffffff9081169116146102825760405162461bcd60e51b815260206004820152603c60248201527f43616e6e6f7420636865636b207468652077696e6e65722c206e65656420746f60448201527f206f70656e20616c6c207468652073656e7420656e76656c6f7065730000000060648201526084015b60405180910390fd5b6000808080805b6004548110156103cb576000600482815481106102b657634e487b7160e01b600052603260045260246000fd5b60009182526020822001546001600160a01b03169150805b6001600160a01b038316600090815260016020526040902060020154811015610393576001600160a01b038316600090815260016020526040812060020180548390811061032c57634e487b7160e01b600052603260045260246000fd5b60009182526020808320909101546001600160a01b0390811680845283835260409384902084518086019095528054808652600191909101549092169284019290925290925061037c9085610f0b565b93505050808061038b90610f43565b9150506102ce565b50868111156103a7578096508195506103b6565b868114156103b6578094508193505b505080806103c390610f43565b915050610289565b50818414156105595760005b6004548110156105135760006004828154811061040457634e487b7160e01b600052603260045260246000fd5b60009182526020822001546001600160a01b031691505b6001600160a01b0382166000908152600160205260409020600201548110156104fe576001600160a01b038216600090815260016020526040812060020180548390811061047957634e487b7160e01b600052603260045260246000fd5b60009182526020808320909101546001600160a01b0390811680845283835260408085208151808301835281548082526001929092015490941694840194909452519094509092849280156108fc02929091818181858888f193505050501580156104e8573d6000803e3d6000fd5b50505080806104f690610f43565b91505061041b565b5050808061050b90610f43565b9150506103d7565b506005546040516001600160a01b0390911681527fd9b9044da3167fe82c0e21394db224885a43b7de20efc6133458294f2c6bc9609060200160405180910390a161076a565b60005b6004548110156106215760006004828154811061058957634e487b7160e01b600052603260045260246000fd5b6000918252602090912001546001600160a01b0390811691508516811461060e576001600160a01b038082166000908152602081815260408083208151808301835281548082526001909201548616938101939093529051919389169281156108fc029290818181858888f1935050505015801561060b573d6000803e3d6000fd5b50505b508061061981610f43565b91505061055c565b506001600160a01b038084166000818152602081815260408083208151808301835281548082526001928301549097168185015294845290915281206002015491929161066e9083610f23565b905060005b6001600160a01b038716600090815260016020526040902060020154811015610729576001600160a01b03871660009081526001602052604081206002018054839081106106d157634e487b7160e01b600052603260045260246000fd5b60009182526020822001546040516001600160a01b039091169250829185156108fc02918691818181858888f19350505050158015610714573d6000803e3d6000fd5b5050808061072190610f43565b915050610673565b506040516001600160a01b03871681527f871e83b983a039f59e0f4c08b833ff72e17dcba70607314804f13146995a8f769060200160405180910390a15050505b50505050565b60065463ffffffff80821664010000000090920416106107ea5760405162461bcd60e51b815260206004820152602f60248201527f43616e6e6f7420766f7465206e6f772c20766f74696e672071756f72756d206860448201526e185cc81899595b881c995858da1959608a1b6064820152608401610279565b6006546002600160601b90910463ffffffff161161084a5760405162461bcd60e51b815260206004820152601d60248201527f4d696e696d756d20332063616e646964617465732072657175697265640000006044820152606401610279565b3360009081526002602052604090205461089c5760068054640100000000900463ffffffff1690600461087c83610f5e565b91906101000a81548163ffffffff021916908363ffffffff160217905550505b3360008181526002602090815260409182902084905590519182527f8033de21ae72f21fa8773c90e60e7a5188cb8e44b97f487a5c362a491882ae3491015b60405180910390a150565b600481815481106108f657600080fd5b6000918252602090912001546001600160a01b0316905081565b600654640100000000810463ffffffff9081169116146109915760405162461bcd60e51b815260206004820152603660248201527f43616e6e6f74206f70656e20616e20656e76656c6f70652c20766f74696e67206044820152751c5d5bdc9d5b481b9bdd081c995858da1959081e595d60521b6064820152608401610279565b336000908152600260205260409020546109f95760405162461bcd60e51b815260206004820152602360248201527f5468652073656e64657220686173206e6f742063617374656420616e7920766f60448201526274657360e81b6064820152608401610279565b3360009081526002602052604081205490610a15848434610db0565b9050808214610a825760405162461bcd60e51b815260206004820152603360248201527f53656e7420656e76656c6f706520646f6573206e6f7420636f72726573706f6e60448201527219081d1bc81d1a19481bdb994818d85cdd1959606a1b6064820152608401610279565b6040805180820182523481526001600160a01b038581166020808401828152336000908152808352868120955186559051600195860180546001600160a01b031916919095161790935590825282905291822001805491610ae283610f43565b90915550506001600160a01b038316600090815260016020818152604083206002018054928301815583529091200180546001600160a01b031916331790556006805463ffffffff600160401b90910416906008610b3f83610f5e565b82546101009290920a63ffffffff81810219909316919092169190910217905550604080513381523460208201526001600160a01b0385168183015290517f389bc8f710c058e5d0507e8bd7a82953376bea3c5d11fddd2b31144904c5fc099181900360600190a150505050565b6040518060600160405280826001600160a01b0316815260200160008152602001600067ffffffffffffffff811115610bf657634e487b7160e01b600052604160045260246000fd5b604051908082528060200260200182016040528015610c1f578160200160208202803683370190505b5090526001600160a01b03828116600090815260016020818152604092839020855181546001600160a01b03191695169490941784558481015191840191909155908301518051610c769260028501920190610df0565b505060068054600160601b900463ffffffff169150600c610c9683610f5e565b82546101009290920a63ffffffff8181021990931691831602179091556004805460018181019092557f8a35acfbc15ff81a39ae7d344fd709f28e8600b4aa8c65c6b64bfe7fe36bd19b0180546001600160a01b03199081166001600160a01b03878116918217909355604080518082018252348152602080820184815260009485528482529383902091518255925195018054909316949093169390931790556006549051600160601b90910490921682527f7b57fae952689bfa96cba1e0fd3351cd4afa24782414dbede66b44e5808c2ac89250016108db565b600060048281548110610d9557634e487b7160e01b600052603260045260246000fd5b6000918252602090912001546001600160a01b031692915050565b604080516020808201959095526001600160a01b039390931683820152606080840192909252805180840390920182526080909201909152805191012090565b828054828255906000526020600020908101928215610e45579160200282015b82811115610e4557825182546001600160a01b0319166001600160a01b03909116178255602090920191600190910190610e10565b50610e51929150610e55565b5090565b5b80821115610e515760008155600101610e56565b600060208284031215610e7b578081fd5b8135610e8681610f98565b9392505050565b600060208284031215610e9e578081fd5b5035919050565b60008060408385031215610eb7578081fd5b823591506020830135610ec981610f98565b809150509250929050565b600080600060608486031215610ee8578081fd5b833592506020840135610efa81610f98565b929592945050506040919091013590565b60008219821115610f1e57610f1e610f82565b500190565b600082610f3e57634e487b7160e01b81526012600452602481fd5b500490565b6000600019821415610f5757610f57610f82565b5060010190565b600063ffffffff80831681811415610f7857610f78610f82565b6001019392505050565b634e487b7160e01b600052601160045260246000fd5b6001600160a01b0381168114610fad57600080fd5b5056fea2646970667358221220ffde0f14ce3414e671e4556fc2858b43331e9c56f4646432e3925fe177c7270364736f6c63430008040033",
  "immutableReferences": {},
  "source": "// SPDX-License-Identifier: MIT\r\npragma solidity 0.8.4;\r\n\r\ncontract MayorMultipleCandidates {\r\n\r\n    struct Conditions {\r\n        uint32 quorum;\r\n        uint32 envelopes_casted;\r\n        uint32 envelopes_opened;\r\n        uint32 candidate_count;\r\n    }\r\n    \r\n    struct Refund {\r\n        uint soul;\r\n        address _candidate;\r\n    }\r\n\r\n    struct Candidate {\r\n        address payable id;\r\n        uint vote_count;\r\n        address payable[] voters;\r\n    }\r\n\r\n    event CandidateCounts(uint count);\r\n    event Drawn(address _escrow);\r\n    event NewMayor(address _candidate);\r\n    event Sayonara(address _escrow);\r\n    event EnvelopeCast(address _voter);\r\n    event EnvelopeOpen(address _voter, uint _soul, address _candidate);\r\n    \r\n    // address payable[] candidates;\r\n    mapping(address => Refund) souls;\r\n    mapping(address => Candidate) candidates;\r\n    mapping(address => bytes32) envelopes;\r\n    mapping(address => uint) vote_counts;\r\n    address payable[] public candidate_list;\r\n    address payable public escrow;\r\n    // address payable[] voters;\r\n    \r\n    Conditions voting_condition;\r\n    bool private flag = false;\r\n\r\n    \r\n    modifier canVote() {\r\n        require(voting_condition.envelopes_casted < voting_condition.quorum,\r\n                \"Cannot vote now, voting quorum has been reached\");\r\n        _;\r\n    }\r\n    modifier canOpen() {\r\n        require(voting_condition.envelopes_casted == voting_condition.quorum,\r\n                \"Cannot open an envelope, voting quorum not reached yet\");\r\n        _;\r\n    }\r\n    modifier canCheckOutcome() {\r\n        require(voting_condition.envelopes_opened == voting_condition.quorum,\r\n                \"Cannot check the winner, need to open all the sent envelopes\");\r\n        _;\r\n    }\r\n\r\n\r\n    constructor(address payable _escrow, uint32 _quorum) public {\r\n        escrow = _escrow;\r\n        voting_condition = Conditions({quorum: _quorum, envelopes_casted: 0, envelopes_opened: 0, candidate_count: 0});\r\n    }\r\n\r\n    function add_candidate(address payable _candidate) public payable {\r\n        candidates[_candidate] = Candidate({ id: payable(_candidate), vote_count: 0, voters: new address payable[](0)});\r\n        voting_condition.candidate_count++;\r\n        candidate_list.push(_candidate);\r\n        souls[_candidate] = Refund(msg.value, _candidate);\r\n        emit CandidateCounts(voting_condition.candidate_count);\r\n    }\r\n\r\n    function get_candidate_count() public view returns(uint) {\r\n        return voting_condition.candidate_count;\r\n    }\r\n\r\n    function get_candidate_vote_count(address _candidate) public view returns(uint) {\r\n        return candidates[_candidate].vote_count;\r\n    }\r\n\r\n    function cast_envelope(bytes32 _envelope) canVote public {\r\n        require(voting_condition.candidate_count > 2, \"Minimum 3 candidates required\");\r\n        \r\n        if(envelopes[msg.sender] == 0x0) // checking if already voted, no increment, else increment\r\n            voting_condition.envelopes_casted++;\r\n\r\n        envelopes[msg.sender] = _envelope;\r\n        emit EnvelopeCast(msg.sender);\r\n    }\r\n\r\n    function open_envelope(uint _sigil, address _candidate) canOpen public payable {\r\n        require(envelopes[msg.sender] != 0x0, \"The sender has not casted any votes\");\r\n        \r\n        bytes32 _casted_envelope = envelopes[msg.sender];\r\n        bytes32 _sent_envelope = compute_envelope(_sigil, _candidate, msg.value);\r\n\r\n        require(_casted_envelope == _sent_envelope, \"Sent envelope does not correspond to the one casted\");\r\n        souls[msg.sender] = Refund(msg.value, _candidate);\r\n\r\n        candidates[_candidate].vote_count++;\r\n        candidates[_candidate].voters.push(payable(msg.sender));\r\n\r\n        // if (_doblon == true)\r\n        //     yaySoul += msg.value;\r\n        // else\r\n        //     naySoul += msg.value;\r\n        \r\n        voting_condition.envelopes_opened++;\r\n        emit EnvelopeOpen(msg.sender, msg.value, _candidate);\r\n    }\r\n\r\n    function get_candidate_using_idx(uint idx) public view returns(address) {\r\n        return candidate_list[idx];\r\n    }\r\n\r\n    function mayor_or_sayonara() canCheckOutcome public {\r\n        uint winningVote = 0;\r\n        address payable winner;\r\n        uint winningVote2 = 0;\r\n        address payable winner2;\r\n\r\n        // WINNER BASED ON VOTE COUNTS\r\n        // for (uint p = 0; p < candidate_list.length; p++) {\r\n        //     address payable candidate_address = candidate_list[p];\r\n        //     uint vote_count = candidates[candidate_address].vote_count;\r\n\r\n        //     if (vote_count > winningVote) { // if higher than winningVote - Winner\r\n        //         winningVote = vote_count;\r\n        //         winner = candidate_address;\r\n        //     } else if (vote_count == winningVote) { // if equal to previous winningVote - Draw\r\n        //         winningVote2 = vote_count;\r\n        //         winner2 = candidate_address;\r\n        //     }\r\n        // }\r\n\r\n        // WINNER BASED ON SUM OF SOULS\r\n        for (uint i = 0; i < candidate_list.length; i++) {\r\n            address payable candidate_address = candidate_list[i];\r\n            uint soulSum = 0;\r\n            for (uint v = 0; v < candidates[candidate_address].voters.length; v++) {\r\n                address payable voter = candidates[candidate_address].voters[v];\r\n                Refund memory voter_details = souls[voter];\r\n                soulSum += voter_details.soul;\r\n            }\r\n            if (soulSum > winningVote) { // if higher than soulSum - Winner\r\n                winningVote = soulSum;\r\n                winner = candidate_address;\r\n            } else if (soulSum == winningVote) { // if equal to previous soulSum - Draw\r\n                winningVote2 = soulSum;\r\n                winner2 = candidate_address;\r\n            }\r\n        }\r\n\r\n        if(winningVote == winningVote2) {\r\n            // Drawn case\r\n            for (uint i = 0; i < candidate_list.length; i++) {\r\n                address payable candidate_address = candidate_list[i];\r\n                for (uint v = 0; v < candidates[candidate_address].voters.length; v++) {\r\n                    address payable voter = candidates[candidate_address].voters[v];\r\n                    Refund memory voter_details = souls[voter];\r\n                    voter.transfer(voter_details.soul);\r\n                }                \r\n            }\r\n            emit Drawn(escrow);   \r\n            // return (winningVote, winner, winningVote2, winner2);\r\n        } else {\r\n            // Win case\r\n            for (uint i = 0; i < candidate_list.length; i++) { // amount from loosing candidates to winner\r\n                address payable candidate_address = candidate_list[i];\r\n                if(candidate_address != winner) {\r\n                    Refund memory voter_detail = souls[candidate_address];\r\n                    winner.transfer(voter_detail.soul); \r\n                }            \r\n            }            \r\n            Refund memory voter_details = souls[winner];\r\n            uint soul = voter_details.soul;\r\n            uint share = soul / candidates[winner].voters.length;\r\n            for (uint v = 0; v < candidates[winner].voters.length; v++) { // amount from winner to its voter (divided)\r\n                address payable voter = candidates[winner].voters[v];\r\n                voter.transfer(share); \r\n            }\r\n\r\n            emit NewMayor(winner);\r\n            // return (winningVote, winner, winningVote2, winner2);\r\n        }\r\n\r\n    }\r\n    \r\n    function compute_envelope(uint _sigil, address _candidate, uint _soul) public pure returns(bytes32) {\r\n        return keccak256(abi.encode(_sigil, _candidate, _soul)); // 30 gas + 6 gas for each 256 bits of data being hashed\r\n    }\r\n\r\n    \r\n}",
  "sourcePath": "C:/eth/contracts/MayorMultipleCandidates.sol",
  "compiler": {
    "name": "solc",
    "version": "0.8.4+commit.c7e474f2.Emscripten.clang"
  },
  "schemaVersion": "3.4.1",
  "updatedAt": "2021-06-10T14:03:48.070Z",
  "devdoc": {
    "kind": "dev",
    "methods": {},
    "version": 1
  },
  "userdoc": {
    "kind": "user",
    "methods": {},
    "version": 1
  }
}