{
  "contractName": "MayorMultipleCandidates",
  "abi": [
    {
      "inputs": [
        {
          "internalType": "address payable",
          "name": "_escrow",
          "type": "address"
        },
        {
          "internalType": "uint32",
          "name": "_quorum",
          "type": "uint32"
        }
      ],
      "stateMutability": "nonpayable",
      "type": "constructor"
    },
    {
      "anonymous": false,
      "inputs": [
        {
          "indexed": false,
          "internalType": "uint256",
          "name": "count",
          "type": "uint256"
        }
      ],
      "name": "CandidateCounts",
      "type": "event"
    },
    {
      "anonymous": false,
      "inputs": [
        {
          "indexed": false,
          "internalType": "address",
          "name": "_escrow",
          "type": "address"
        }
      ],
      "name": "Drawn",
      "type": "event"
    },
    {
      "anonymous": false,
      "inputs": [
        {
          "indexed": false,
          "internalType": "address",
          "name": "_voter",
          "type": "address"
        }
      ],
      "name": "EnvelopeCast",
      "type": "event"
    },
    {
      "anonymous": false,
      "inputs": [
        {
          "indexed": false,
          "internalType": "address",
          "name": "_voter",
          "type": "address"
        },
        {
          "indexed": false,
          "internalType": "uint256",
          "name": "_soul",
          "type": "uint256"
        },
        {
          "indexed": false,
          "internalType": "address",
          "name": "_candidate",
          "type": "address"
        }
      ],
      "name": "EnvelopeOpen",
      "type": "event"
    },
    {
      "anonymous": false,
      "inputs": [
        {
          "indexed": false,
          "internalType": "address",
          "name": "_candidate",
          "type": "address"
        }
      ],
      "name": "NewMayor",
      "type": "event"
    },
    {
      "anonymous": false,
      "inputs": [
        {
          "indexed": false,
          "internalType": "address",
          "name": "_escrow",
          "type": "address"
        }
      ],
      "name": "Sayonara",
      "type": "event"
    },
    {
      "inputs": [
        {
          "internalType": "uint256",
          "name": "",
          "type": "uint256"
        }
      ],
      "name": "candidate_list",
      "outputs": [
        {
          "internalType": "address payable",
          "name": "",
          "type": "address"
        }
      ],
      "stateMutability": "view",
      "type": "function",
      "constant": true
    },
    {
      "inputs": [],
      "name": "escrow",
      "outputs": [
        {
          "internalType": "address payable",
          "name": "",
          "type": "address"
        }
      ],
      "stateMutability": "view",
      "type": "function",
      "constant": true
    },
    {
      "inputs": [
        {
          "internalType": "address payable",
          "name": "_candidate",
          "type": "address"
        }
      ],
      "name": "add_candidate",
      "outputs": [],
      "stateMutability": "payable",
      "type": "function",
      "payable": true
    },
    {
      "inputs": [],
      "name": "get_candidate_count",
      "outputs": [
        {
          "internalType": "uint256",
          "name": "",
          "type": "uint256"
        }
      ],
      "stateMutability": "view",
      "type": "function",
      "constant": true
    },
    {
      "inputs": [
        {
          "internalType": "address",
          "name": "_candidate",
          "type": "address"
        }
      ],
      "name": "get_candidate_vote_count",
      "outputs": [
        {
          "internalType": "uint256",
          "name": "",
          "type": "uint256"
        }
      ],
      "stateMutability": "view",
      "type": "function",
      "constant": true
    },
    {
      "inputs": [
        {
          "internalType": "bytes32",
          "name": "_envelope",
          "type": "bytes32"
        }
      ],
      "name": "cast_envelope",
      "outputs": [],
      "stateMutability": "nonpayable",
      "type": "function"
    },
    {
      "inputs": [
        {
          "internalType": "uint256",
          "name": "_sigil",
          "type": "uint256"
        },
        {
          "internalType": "address",
          "name": "_candidate",
          "type": "address"
        }
      ],
      "name": "open_envelope",
      "outputs": [],
      "stateMutability": "payable",
      "type": "function",
      "payable": true
    },
    {
      "inputs": [
        {
          "internalType": "uint256",
          "name": "idx",
          "type": "uint256"
        }
      ],
      "name": "get_candidate_using_idx",
      "outputs": [
        {
          "internalType": "address",
          "name": "",
          "type": "address"
        }
      ],
      "stateMutability": "view",
      "type": "function",
      "constant": true
    },
    {
      "inputs": [],
      "name": "check_result",
      "outputs": [
        {
          "internalType": "address",
          "name": "",
          "type": "address"
        },
        {
          "internalType": "bool",
          "name": "",
          "type": "bool"
        }
      ],
      "stateMutability": "view",
      "type": "function",
      "constant": true
    },
    {
      "inputs": [],
      "name": "mayor_or_sayonara",
      "outputs": [],
      "stateMutability": "nonpayable",
      "type": "function"
    },
    {
      "inputs": [
        {
          "internalType": "uint256",
          "name": "_sigil",
          "type": "uint256"
        },
        {
          "internalType": "address",
          "name": "_candidate",
          "type": "address"
        },
        {
          "internalType": "uint256",
          "name": "_soul",
          "type": "uint256"
        }
      ],
      "name": "compute_envelope",
      "outputs": [
        {
          "internalType": "bytes32",
          "name": "",
          "type": "bytes32"
        }
      ],
      "stateMutability": "pure",
      "type": "function",
      "constant": true
    }
  ],
  "bytecode": "0x60806040526007805460ff1916905534801561001a57600080fd5b5060405161143d38038061143d8339810160408190526100399161009c565b600580546001600160a01b0319166001600160a01b0393909316929092179091556040805160808101825263ffffffff909216808352600060208401819052918301829052606090920152600680546001600160801b03191690911790556100e8565b600080604083850312156100ae578182fd5b82516001600160a01b03811681146100c4578283fd5b602084015190925063ffffffff811681146100dd578182fd5b809150509250929050565b611346806100f76000396000f3fe60806040526004361061009c5760003560e01c80638e575939116100645780638e57593914610154578063a1498f5014610167578063bab2ec47146101a3578063c586ff67146101c3578063d1244de9146101e3578063e2fdcc171461021d57600080fd5b806305698612146100a15780631c9a34e3146100b85780633ce2c4bf146100d857806343c89d02146101095780635a26164b14610141575b600080fd5b3480156100ad57600080fd5b506100b661023d565b005b3480156100c457600080fd5b506100b66100d33660046111ed565b6105e5565b3480156100e457600080fd5b50600654600160601b900463ffffffff165b6040519081526020015b60405180910390f35b34801561011557600080fd5b506101296101243660046111ed565b61075b565b6040516001600160a01b039091168152602001610100565b6100b661014f366004611205565b610785565b6100b66101623660046111ca565b610a22565b34801561017357600080fd5b506007546040805161010083046001600160a01b03168152600160a81b90920460ff161515602083015201610100565b3480156101af57600080fd5b506101296101be3660046111ed565b610c48565b3480156101cf57600080fd5b506100f66101de366004611234565b610c86565b3480156101ef57600080fd5b506100f66101fe3660046111ca565b6001600160a01b03166000908152600160208190526040909120015490565b34801561022957600080fd5b50600554610129906001600160a01b031681565b600654600160401b810463ffffffff9081169116146102c95760405162461bcd60e51b815260206004820152603c60248201527f43616e6e6f7420636865636b207468652077696e6e65722c206e65656420746f60448201527f206f70656e20616c6c207468652073656e7420656e76656c6f7065730000000060648201526084015b60405180910390fd5b60075460ff16156103335760405162461bcd60e51b815260206004820152602e60248201527f456e76656c6f70652063616e206265206f70656e656420666f7220612073696e60448201526d33b632903a34b6b29037b7363c9760911b60648201526084016102c0565b6007805460ff191660011790556000808080805b6004548110156104895760006004828154811061037457634e487b7160e01b600052603260045260246000fd5b60009182526020822001546001600160a01b03169150805b6001600160a01b038316600090815260016020526040902060020154811015610451576001600160a01b03831660009081526001602052604081206002018054839081106103ea57634e487b7160e01b600052603260045260246000fd5b60009182526020808320909101546001600160a01b0390811680845283835260409384902084518086019095528054808652600191909101549092169284019290925290925061043a908561126b565b935050508080610449906112a3565b91505061038c565b508681111561046557809650819550610474565b86811415610474578094508193505b50508080610481906112a3565b915050610347565b50818414156105a557600093506000915060005b60045481101561052b576000600482815481106104ca57634e487b7160e01b600052603260045260246000fd5b60009182526020808320909101546001600160a01b0316808352600191829052604090922001549091508681111561050757809650819550610516565b86811415610516578094508193505b50508080610523906112a3565b91505061049d565b508184141561056b5760078054610100600160b01b0319166101006001600160a01b0386160260ff60a81b1916179055610566600084610cc6565b6105df565b6007805460ff60a81b196001600160a01b0386166101000216610100600160b01b031990911617600160a81b179055610566600184610cc6565b6007805460ff60a81b196001600160a01b0386166101000216610100600160b01b031990911617600160a81b1790556105df600184610cc6565b50505050565b60065463ffffffff808216640100000000909204161061065f5760405162461bcd60e51b815260206004820152602f60248201527f43616e6e6f7420766f7465206e6f772c20766f74696e672071756f72756d206860448201526e185cc81899595b881c995858da1959608a1b60648201526084016102c0565b6006546002600160601b90910463ffffffff16116106bf5760405162461bcd60e51b815260206004820152601d60248201527f4d696e696d756d20332063616e6469646174657320726571756972656400000060448201526064016102c0565b336000908152600260205260409020546107115760068054640100000000900463ffffffff169060046106f1836112be565b91906101000a81548163ffffffff021916908363ffffffff160217905550505b3360008181526002602090815260409182902084905590519182527f8033de21ae72f21fa8773c90e60e7a5188cb8e44b97f487a5c362a491882ae3491015b60405180910390a150565b6004818154811061076b57600080fd5b6000918252602090912001546001600160a01b0316905081565b600654640100000000810463ffffffff9081169116146108065760405162461bcd60e51b815260206004820152603660248201527f43616e6e6f74206f70656e20616e20656e76656c6f70652c20766f74696e67206044820152751c5d5bdc9d5b481b9bdd081c995858da1959081e595d60521b60648201526084016102c0565b3360009081526002602052604090205461086e5760405162461bcd60e51b815260206004820152602360248201527f5468652073656e64657220686173206e6f742063617374656420616e7920766f60448201526274657360e81b60648201526084016102c0565b336000908152600260205260408120549061088a848434610c86565b90508082146108f75760405162461bcd60e51b815260206004820152603360248201527f53656e7420656e76656c6f706520646f6573206e6f7420636f72726573706f6e60448201527219081d1bc81d1a19481bdb994818d85cdd1959606a1b60648201526084016102c0565b6040805180820182523481526001600160a01b038581166020808401828152336000908152808352868120955186559051600195860180546001600160a01b031916919095161790935590825282905291822001805491610957836112a3565b90915550506001600160a01b038316600090815260016020818152604083206002018054928301815583529091200180546001600160a01b031916331790556006805463ffffffff600160401b909104169060086109b4836112be565b82546101009290920a63ffffffff81810219909316919092169190910217905550604080513381523460208201526001600160a01b0385168183015290517f389bc8f710c058e5d0507e8bd7a82953376bea3c5d11fddd2b31144904c5fc099181900360600190a150505050565b60003411610a835760405162461bcd60e51b815260206004820152602860248201527f4465706f7369746520736f756c73206d757374206265206772656174657220746044820152673430b7101817171760c11b60648201526084016102c0565b6040518060600160405280826001600160a01b0316815260200160008152602001600067ffffffffffffffff811115610acc57634e487b7160e01b600052604160045260246000fd5b604051908082528060200260200182016040528015610af5578160200160208202803683370190505b5090526001600160a01b03828116600090815260016020818152604092839020855181546001600160a01b03191695169490941784558481015191840191909155908301518051610b4c9260028501920190611150565b505060068054600160601b900463ffffffff169150600c610b6c836112be565b82546101009290920a63ffffffff8181021990931691831602179091556004805460018181019092557f8a35acfbc15ff81a39ae7d344fd709f28e8600b4aa8c65c6b64bfe7fe36bd19b0180546001600160a01b03199081166001600160a01b03878116918217909355604080518082018252348152602080820184815260009485528482529383902091518255925195018054909316949093169390931790556006549051600160601b90910490921682527f7b57fae952689bfa96cba1e0fd3351cd4afa24782414dbede66b44e5808c2ac8925001610750565b600060048281548110610c6b57634e487b7160e01b600052603260045260246000fd5b6000918252602090912001546001600160a01b031692915050565b604080516020808201959095526001600160a01b039390931683820152606080840192909252805180840390920182526080909201909152805191012090565b8115610fc75760005b600454811015610e7b57600060048281548110610cfc57634e487b7160e01b600052603260045260246000fd5b6000918252602090912001546001600160a01b03908116915083168114610e68576001600160a01b038082166000908152602081815260408083208151808301835281548082526001909201548616938101939093529051919387169281156108fc029290818181858888f19350505050158015610d7e573d6000803e3d6000fd5b5060005b6001600160a01b038316600090815260016020526040902060020154811015610e65576001600160a01b0383166000908152600160205260408120600201805483908110610de057634e487b7160e01b600052603260045260246000fd5b60009182526020808320909101546001600160a01b0390811680845283835260408085208151808301835281548082526001929092015490941694840194909452519094509092849280156108fc02929091818181858888f19350505050158015610e4f573d6000803e3d6000fd5b5050508080610e5d906112a3565b915050610d82565b50505b5080610e73816112a3565b915050610ccf565b506001600160a01b0380821660008181526020818152604080832081518083018352815480825260019283015490971681850152948452909152812060020154919291610ec89083611283565b905060005b6001600160a01b038516600090815260016020526040902060020154811015610f83576001600160a01b0385166000908152600160205260408120600201805483908110610f2b57634e487b7160e01b600052603260045260246000fd5b60009182526020822001546040516001600160a01b039091169250829185156108fc02918691818181858888f19350505050158015610f6e573d6000803e3d6000fd5b50508080610f7b906112a3565b915050610ecd565b506040516001600160a01b03851681527f871e83b983a039f59e0f4c08b833ff72e17dcba70607314804f13146995a8f769060200160405180910390a15050505050565b60005b60045481101561110b57600060048281548110610ff757634e487b7160e01b600052603260045260246000fd5b60009182526020822001546001600160a01b031691505b6001600160a01b0382166000908152600160205260409020600201548110156110f6576001600160a01b038216600090815260016020526040812060020180548390811061106c57634e487b7160e01b600052603260045260246000fd5b60009182526020808320909101546001600160a01b039081168084528383526040808520815180830183528154808252600192909201548516958101959095526005549151929650939492169280156108fc0292909190818181858888f193505050501580156110e0573d6000803e3d6000fd5b50505080806110ee906112a3565b91505061100e565b50508080611103906112a3565b915050610fca565b506005546040516001600160a01b0390911681527fd9b9044da3167fe82c0e21394db224885a43b7de20efc6133458294f2c6bc9609060200160405180910390a15050565b8280548282559060005260206000209081019282156111a5579160200282015b828111156111a557825182546001600160a01b0319166001600160a01b03909116178255602090920191600190910190611170565b506111b19291506111b5565b5090565b5b808211156111b157600081556001016111b6565b6000602082840312156111db578081fd5b81356111e6816112f8565b9392505050565b6000602082840312156111fe578081fd5b5035919050565b60008060408385031215611217578081fd5b823591506020830135611229816112f8565b809150509250929050565b600080600060608486031215611248578081fd5b83359250602084013561125a816112f8565b929592945050506040919091013590565b6000821982111561127e5761127e6112e2565b500190565b60008261129e57634e487b7160e01b81526012600452602481fd5b500490565b60006000198214156112b7576112b76112e2565b5060010190565b600063ffffffff808316818114156112d8576112d86112e2565b6001019392505050565b634e487b7160e01b600052601160045260246000fd5b6001600160a01b038116811461130d57600080fd5b5056fea264697066735822122008078b5e26c1a0ee4e9e22755902de5a40ec24d595ba4135b30c1ca5fdcf218064736f6c63430008040033",
  "immutableReferences": {},
  "source": "// SPDX-License-Identifier: MIT\r\npragma solidity 0.8.4;\r\n\r\ncontract MayorMultipleCandidates {\r\n\r\n    struct Conditions {\r\n        uint32 quorum;\r\n        uint32 envelopes_casted;\r\n        uint32 envelopes_opened;\r\n        uint32 candidate_count;\r\n    }\r\n    \r\n    struct Refund {\r\n        uint soul;\r\n        address _candidate;\r\n    }\r\n\r\n    struct Candidate {\r\n        address payable id;\r\n        uint vote_count;\r\n        address payable[] voters;\r\n    }\r\n\r\n    event CandidateCounts(uint count);\r\n    event Drawn(address _escrow);\r\n    event NewMayor(address _candidate);\r\n    event Sayonara(address _escrow);\r\n    event EnvelopeCast(address _voter);\r\n    event EnvelopeOpen(address _voter, uint _soul, address _candidate);\r\n    \r\n    // address payable[] candidates;\r\n    mapping(address => Refund) souls;\r\n    mapping(address => Candidate) candidates;\r\n    mapping(address => bytes32) envelopes;\r\n    mapping(address => uint) vote_counts;\r\n    address payable[] public candidate_list;\r\n    address payable public escrow;\r\n    // address payable[] voters;\r\n    \r\n    Conditions voting_condition;\r\n    bool private flag = false;    \r\n    address payable private winning_candidate;\r\n    bool private winning_flag;\r\n\r\n    \r\n    modifier canVote() {\r\n        require(voting_condition.envelopes_casted < voting_condition.quorum,\r\n                \"Cannot vote now, voting quorum has been reached\");\r\n        _;\r\n    }\r\n    modifier canOpen() {\r\n        require(voting_condition.envelopes_casted == voting_condition.quorum,\r\n                \"Cannot open an envelope, voting quorum not reached yet\");\r\n        _;\r\n    }\r\n    modifier canCheckOutcome() {\r\n        require(voting_condition.envelopes_opened == voting_condition.quorum,\r\n                \"Cannot check the winner, need to open all the sent envelopes\");\r\n        _;\r\n    }\r\n\r\n\r\n    constructor(address payable _escrow, uint32 _quorum) public {\r\n        escrow = _escrow;\r\n        voting_condition = Conditions({quorum: _quorum, envelopes_casted: 0, envelopes_opened: 0, candidate_count: 0});\r\n    }\r\n\r\n    function add_candidate(address payable _candidate) public payable {\r\n        require(msg.value > 0, \"Deposite souls must be greater than 0...\");\r\n        candidates[_candidate] = Candidate({ id: payable(_candidate), vote_count: 0, voters: new address payable[](0)});\r\n        voting_condition.candidate_count++;\r\n        candidate_list.push(_candidate);\r\n        souls[_candidate] = Refund(msg.value, _candidate);\r\n        emit CandidateCounts(voting_condition.candidate_count);\r\n    }\r\n\r\n    function get_candidate_count() public view returns(uint) {\r\n        return voting_condition.candidate_count;\r\n    }\r\n\r\n    function get_candidate_vote_count(address _candidate) public view returns(uint) {\r\n        return candidates[_candidate].vote_count;\r\n    }\r\n\r\n    function cast_envelope(bytes32 _envelope) canVote public {\r\n        require(voting_condition.candidate_count > 2, \"Minimum 3 candidates required\");\r\n        \r\n        if(envelopes[msg.sender] == 0x0) // checking if already voted, no increment, else increment\r\n            voting_condition.envelopes_casted++;\r\n\r\n        envelopes[msg.sender] = _envelope;\r\n        emit EnvelopeCast(msg.sender);\r\n    }\r\n\r\n    function open_envelope(uint _sigil, address _candidate) canOpen public payable {\r\n        require(envelopes[msg.sender] != 0x0, \"The sender has not casted any votes\");\r\n        \r\n        bytes32 _casted_envelope = envelopes[msg.sender];\r\n        bytes32 _sent_envelope = compute_envelope(_sigil, _candidate, msg.value);\r\n\r\n        require(_casted_envelope == _sent_envelope, \"Sent envelope does not correspond to the one casted\");\r\n        souls[msg.sender] = Refund(msg.value, _candidate);\r\n\r\n        candidates[_candidate].vote_count++;\r\n        candidates[_candidate].voters.push(payable(msg.sender));\r\n\r\n        // if (_doblon == true)\r\n        //     yaySoul += msg.value;\r\n        // else\r\n        //     naySoul += msg.value;\r\n        \r\n        voting_condition.envelopes_opened++;\r\n        emit EnvelopeOpen(msg.sender, msg.value, _candidate);\r\n    }\r\n\r\n    function get_candidate_using_idx(uint idx) public view returns(address) {\r\n        return candidate_list[idx];\r\n    }\r\n\r\n    function check_result() public view returns(address, bool) {\r\n        return (winning_candidate, winning_flag);\r\n    }\r\n\r\n    function mayor_or_sayonara() canCheckOutcome public {\r\n        require(flag == false, \"Envelope can be opened for a single time only.\");\r\n        \r\n        flag = true;\r\n\r\n        uint winningVote = 0;\r\n        address payable winner;\r\n        uint winningVote2 = 0;\r\n        address payable winner2;\r\n\r\n        // WINNER BASED ON VOTE COUNTS\r\n        // for (uint p = 0; p < candidate_list.length; p++) {\r\n        //     address payable candidate_address = candidate_list[p];\r\n        //     uint vote_count = candidates[candidate_address].vote_count;\r\n\r\n        //     if (vote_count > winningVote) { // if higher than winningVote - Winner\r\n        //         winningVote = vote_count;\r\n        //         winner = candidate_address;\r\n        //     } else if (vote_count == winningVote) { // if equal to previous winningVote - Draw\r\n        //         winningVote2 = vote_count;\r\n        //         winner2 = candidate_address;\r\n        //     }\r\n        // }\r\n\r\n        // WINNER BASED ON SUM OF SOULS\r\n        for (uint i = 0; i < candidate_list.length; i++) {\r\n            address payable candidate_address = candidate_list[i];\r\n            uint soulSum = 0;\r\n            for (uint v = 0; v < candidates[candidate_address].voters.length; v++) {\r\n                address payable voter = candidates[candidate_address].voters[v];\r\n                Refund memory voter_details = souls[voter];\r\n                soulSum += voter_details.soul;\r\n            }\r\n            if (soulSum > winningVote) { // if higher than soulSum - Winner\r\n                winningVote = soulSum;\r\n                winner = candidate_address;\r\n            } else if (soulSum == winningVote) { // if equal to previous soulSum - Draw\r\n                winningVote2 = soulSum;\r\n                winner2 = candidate_address;\r\n            }\r\n        }\r\n\r\n        if(winningVote == winningVote2) {\r\n            // WINNER BASED ON VOTE COUNTS\r\n            winningVote = 0;\r\n            winner;\r\n            winningVote2 = 0;\r\n            winner2;\r\n            for (uint p = 0; p < candidate_list.length; p++) {\r\n                address payable candidate_address = candidate_list[p];\r\n                uint vote_count = candidates[candidate_address].vote_count;\r\n\r\n                if (vote_count > winningVote) { // if higher than winningVote - Winner\r\n                    winningVote = vote_count;\r\n                    winner = candidate_address;\r\n                } else if (vote_count == winningVote) { // if equal to previous winningVote - Draw\r\n                    winningVote2 = vote_count;\r\n                    winner2 = candidate_address;\r\n                }\r\n            }\r\n\r\n            if(winningVote == winningVote2) {\r\n                winning_candidate = winner;\r\n                winning_flag = false;\r\n                WinDraw(false,winner);\r\n            } else {\r\n                winning_candidate = winner;\r\n                winning_flag = true;\r\n                WinDraw(true,winner);\r\n            }            \r\n            // return (winningVote, winner, winningVote2, winner2);\r\n        } else {\r\n            winning_candidate = winner;\r\n            winning_flag = true;\r\n            WinDraw(true,winner);\r\n            // return (winningVote, winner, winningVote2, winner2);\r\n        }\r\n\r\n    }\r\n\r\n    function WinDraw(bool win, address payable winner) private {\r\n        if(win) {\r\n            // Win case\r\n            for (uint i = 0; i < candidate_list.length; i++) { // amount from loosing candidates to winner\r\n                address payable candidate_address = candidate_list[i];\r\n                if(candidate_address != winner) { // LOSING CANDIATE SOUL TO THE WINNER CANDIDATE\r\n                    Refund memory voter_detail = souls[candidate_address];\r\n                    winner.transfer(voter_detail.soul); \r\n                    // LOSING VOTERS GET THEIR SOUL BACK\r\n                    for (uint v = 0; v < candidates[candidate_address].voters.length; v++) { \r\n                        address payable voter = candidates[candidate_address].voters[v];\r\n                        Refund memory loosing_voter_details = souls[voter];\r\n                        voter.transfer(loosing_voter_details.soul);\r\n                    }\r\n                }            \r\n            }            \r\n            Refund memory winner_voter_details = souls[winner];\r\n            uint soul = winner_voter_details.soul;\r\n            uint share = soul / candidates[winner].voters.length;\r\n            for (uint v = 0; v < candidates[winner].voters.length; v++) { // amount from winner to its voter (divided)\r\n                address payable voter = candidates[winner].voters[v];\r\n                voter.transfer(share); \r\n            }\r\n            emit NewMayor(winner);\r\n        } else {\r\n            // Drawn case\r\n            for (uint i = 0; i < candidate_list.length; i++) {\r\n                address payable candidate_address = candidate_list[i];\r\n                for (uint v = 0; v < candidates[candidate_address].voters.length; v++) {\r\n                    address payable voter = candidates[candidate_address].voters[v];\r\n                    Refund memory voter_details = souls[voter];\r\n                    escrow.transfer(voter_details.soul);\r\n                }                \r\n            }\r\n            emit Drawn(escrow);   \r\n        }\r\n    }\r\n    \r\n    function compute_envelope(uint _sigil, address _candidate, uint _soul) public pure returns(bytes32) {\r\n        return keccak256(abi.encode(_sigil, _candidate, _soul)); // 30 gas + 6 gas for each 256 bits of data being hashed\r\n    }\r\n\r\n    \r\n}",
  "sourcePath": "C:/eth/contracts/MayorMultipleCandidates.sol",
  "compiler": {
    "name": "solc",
    "version": "0.8.4+commit.c7e474f2.Emscripten.clang"
  },
  "schemaVersion": "3.4.1",
  "updatedAt": "2021-06-18T07:53:57.455Z",
  "networkType": "ethereum",
  "devdoc": {
    "kind": "dev",
    "methods": {},
    "version": 1
  },
  "userdoc": {
    "kind": "user",
    "methods": {},
    "version": 1
  }
}