{
  "contractName": "Mayor",
  "abi": [
    {
      "inputs": [
        {
          "internalType": "address payable",
          "name": "_candidate",
          "type": "address"
        },
        {
          "internalType": "address payable",
          "name": "_escrow",
          "type": "address"
        },
        {
          "internalType": "uint32",
          "name": "_quorum",
          "type": "uint32"
        }
      ],
      "stateMutability": "nonpayable",
      "type": "constructor"
    },
    {
      "anonymous": false,
      "inputs": [
        {
          "indexed": false,
          "internalType": "address",
          "name": "_voter",
          "type": "address"
        }
      ],
      "name": "EnvelopeCast",
      "type": "event"
    },
    {
      "anonymous": false,
      "inputs": [
        {
          "indexed": false,
          "internalType": "address",
          "name": "_voter",
          "type": "address"
        },
        {
          "indexed": false,
          "internalType": "uint256",
          "name": "_soul",
          "type": "uint256"
        },
        {
          "indexed": false,
          "internalType": "bool",
          "name": "_doblon",
          "type": "bool"
        }
      ],
      "name": "EnvelopeOpen",
      "type": "event"
    },
    {
      "anonymous": false,
      "inputs": [
        {
          "indexed": false,
          "internalType": "address",
          "name": "_candidate",
          "type": "address"
        }
      ],
      "name": "NewMayor",
      "type": "event"
    },
    {
      "anonymous": false,
      "inputs": [
        {
          "indexed": false,
          "internalType": "address",
          "name": "_escrow",
          "type": "address"
        }
      ],
      "name": "Sayonara",
      "type": "event"
    },
    {
      "inputs": [],
      "name": "candidate",
      "outputs": [
        {
          "internalType": "address payable",
          "name": "",
          "type": "address"
        }
      ],
      "stateMutability": "view",
      "type": "function"
    },
    {
      "inputs": [],
      "name": "escrow",
      "outputs": [
        {
          "internalType": "address payable",
          "name": "",
          "type": "address"
        }
      ],
      "stateMutability": "view",
      "type": "function"
    },
    {
      "inputs": [],
      "name": "naySoul",
      "outputs": [
        {
          "internalType": "uint256",
          "name": "",
          "type": "uint256"
        }
      ],
      "stateMutability": "view",
      "type": "function"
    },
    {
      "inputs": [],
      "name": "yaySoul",
      "outputs": [
        {
          "internalType": "uint256",
          "name": "",
          "type": "uint256"
        }
      ],
      "stateMutability": "view",
      "type": "function"
    },
    {
      "inputs": [
        {
          "internalType": "bytes32",
          "name": "_envelope",
          "type": "bytes32"
        }
      ],
      "name": "cast_envelope",
      "outputs": [],
      "stateMutability": "nonpayable",
      "type": "function"
    },
    {
      "inputs": [
        {
          "internalType": "uint256",
          "name": "_sigil",
          "type": "uint256"
        },
        {
          "internalType": "bool",
          "name": "_doblon",
          "type": "bool"
        }
      ],
      "name": "open_envelope",
      "outputs": [],
      "stateMutability": "payable",
      "type": "function"
    },
    {
      "inputs": [],
      "name": "mayor_or_sayonara",
      "outputs": [],
      "stateMutability": "nonpayable",
      "type": "function"
    },
    {
      "inputs": [
        {
          "internalType": "uint256",
          "name": "_sigil",
          "type": "uint256"
        },
        {
          "internalType": "bool",
          "name": "_doblon",
          "type": "bool"
        },
        {
          "internalType": "uint256",
          "name": "_soul",
          "type": "uint256"
        }
      ],
      "name": "compute_envelope",
      "outputs": [
        {
          "internalType": "bytes32",
          "name": "",
          "type": "bytes32"
        }
      ],
      "stateMutability": "pure",
      "type": "function"
    }
  ],
  "bytecode": "0x608060405234801561001057600080fd5b50604051610a7d380380610a7d83398101604081905261002f916100b1565b600080546001600160a01b039485166001600160a01b031991821617825560018054949095169316929092179092556040805160608101825263ffffffff90931680845260208401839052920152600380546001600160601b03191690911790556100ff565b80516001600160a01b03811681146100ac57600080fd5b919050565b6000806000606084860312156100c5578283fd5b6100ce84610095565b92506100dc60208501610095565b9150604084015163ffffffff811681146100f4578182fd5b809150509250925092565b61096f8061010e6000396000f3fe60806040526004361061007b5760003560e01c80636c8381f81161004e5780636c8381f81461010057806378194cc6146101385780637a0550d01461014e578063e2fdcc171461016157600080fd5b806305698612146100805780631acecb50146100975780631c9a34e3146100c05780634979a402146100e0575b600080fd5b34801561008c57600080fd5b50610095610181565b005b3480156100a357600080fd5b506100ad60055481565b6040519081526020015b60405180910390f35b3480156100cc57600080fd5b506100956100db366004610855565b61043c565b3480156100ec57600080fd5b506100ad6100fb366004610898565b61054b565b34801561010c57600080fd5b50600054610120906001600160a01b031681565b6040516001600160a01b0390911681526020016100b7565b34801561014457600080fd5b506100ad60045481565b61009561015c36600461086d565b610592565b34801561016d57600080fd5b50600154610120906001600160a01b031681565b600354600160401b810463ffffffff90811691161461020d5760405162461bcd60e51b815260206004820152603c60248201527f43616e6e6f7420636865636b207468652077696e6e65722c206e65656420746f60448201527f206f70656e20616c6c207468652073656e7420656e76656c6f7065730000000060648201526084015b60405180910390fd5b6004546005541115610337576000805b6007548110156102b85760006007828154811061024a57634e487b7160e01b600052603260045260246000fd5b60009182526020808320909101546001600160a01b03168083526006825260409283902083518085019094528054845260019081015460ff16151592840183905290935014156102a35780516102a090856108cc565b93505b505080806102b0906108e4565b91505061021d565b50600080546040516001600160a01b039091169183156108fc02918491818181858888f193505050501580156102f2573d6000803e3d6000fd5b506000546040516001600160a01b0390911681527f871e83b983a039f59e0f4c08b833ff72e17dcba70607314804f13146995a8f76906020015b60405180910390a150565b60005b6007548110156103f95760006007828154811061036757634e487b7160e01b600052603260045260246000fd5b60009182526020808320909101546001600160a01b0316808352600682526040928390208351808501909452805484526001015460ff16151591830182905292506103e45780516040516001600160a01b0384169180156108fc02916000818181858888f193505050501580156103e2573d6000803e3d6000fd5b505b505080806103f1906108e4565b91505061033a565b506001546040516001600160a01b0390911681527fa1134e3746de254ae26240f518fc8ba38299f6dcf7399d77c8a117857b1c46c59060200160405180910390a1565b60035463ffffffff80821664010000000090920416106104b65760405162461bcd60e51b815260206004820152602f60248201527f43616e6e6f7420766f7465206e6f772c20766f74696e672071756f72756d206860448201526e185cc81899595b881c995858da1959608a1b6064820152608401610204565b336000908152600260205260409020546105085760038054640100000000900463ffffffff169060046104e8836108ff565b91906101000a81548163ffffffff021916908363ffffffff160217905550505b3360008181526002602090815260409182902084905590519182527f8033de21ae72f21fa8773c90e60e7a5188cb8e44b97f487a5c362a491882ae34910161032c565b6000838383604051602001610573939291909283529015156020830152604082015260600190565b6040516020818303038152906040528051906020012090509392505050565b600354640100000000810463ffffffff9081169116146106135760405162461bcd60e51b815260206004820152603660248201527f43616e6e6f74206f70656e20616e20656e76656c6f70652c20766f74696e67206044820152751c5d5bdc9d5b481b9bdd081c995858da1959081e595d60521b6064820152608401610204565b3360009081526002602052604090205461067b5760405162461bcd60e51b815260206004820152602360248201527f5468652073656e64657220686173206e6f742063617374656420616e7920766f60448201526274657360e81b6064820152608401610204565b336000908152600260205260408120549061069784843461054b565b90508082146107045760405162461bcd60e51b815260206004820152603360248201527f53656e7420656e76656c6f706520646f6573206e6f7420636f72726573706f6e60448201527219081d1bc81d1a19481bdb994818d85cdd1959606a1b6064820152608401610204565b6040805180820182523481528415156020808301828152336000818152600690935294822093518455516001938401805460ff191691151591909117905560078054808501825591527fa66cc928b5edb82af9bd49922954155ab7b0942694bea4ce44661d9a8736c6880180546001600160a01b03191690931790925514156107a457346005600082825461079991906108cc565b909155506107bc9050565b34600460008282546107b691906108cc565b90915550505b60038054600160401b900463ffffffff169060086107d9836108ff565b82546101009290920a63ffffffff81810219909316919092169190910217905550604080513381523460208201528415158183015290517f71259ee777d4ad2ca5adf062fff9cf0b1a14a6f834e8e8011fc946715720006f9181900360600190a150505050565b8035801515811461085057600080fd5b919050565b600060208284031215610866578081fd5b5035919050565b6000806040838503121561087f578081fd5b8235915061088f60208401610840565b90509250929050565b6000806000606084860312156108ac578081fd5b833592506108bc60208501610840565b9150604084013590509250925092565b600082198211156108df576108df610923565b500190565b60006000198214156108f8576108f8610923565b5060010190565b600063ffffffff8083168181141561091957610919610923565b6001019392505050565b634e487b7160e01b600052601160045260246000fdfea264697066735822122071c4430ac9fb219629fdbf2617686e013e84d23d4dd968aecaf0cec069b2c27764736f6c63430008040033",
  "immutableReferences": {},
  "source": "// SPDX-License-Identifier: MIT\r\npragma solidity 0.8.4;\r\n\r\ncontract Mayor {\r\n    // Structs, events, and modifiers\r\n\r\n    // Store refund data\r\n    struct Refund {\r\n        uint soul;\r\n        bool doblon;\r\n    }\r\n\r\n    // Data to manage the confirmation\r\n    struct Conditions {\r\n        uint32 quorum;\r\n        uint32 envelopes_casted;\r\n        uint32 envelopes_opened;\r\n    }\r\n\r\n    event NewMayor(address _candidate);\r\n    event Sayonara(address _escrow);\r\n    event EnvelopeCast(address _voter);\r\n    event EnvelopeOpen(address _voter, uint _soul, bool _doblon);\r\n\r\n    // Someone can vote as long as the quorum is not reached\r\n    modifier canVote() {\r\n        require(voting_condition.envelopes_casted < voting_condition.quorum,\r\n                \"Cannot vote now, voting quorum has been reached\");\r\n        _;\r\n    }\r\n\r\n    // Envelopes can be opened only after receiving the quorum\r\n    modifier canOpen() {\r\n        require(voting_condition.envelopes_casted == voting_condition.quorum,\r\n                \"Cannot open an envelope, voting quorum not reached yet\");\r\n        _;\r\n    }\r\n\r\n    // The outcome of the confirmation can be computed as soon as all the casted envelopes have been opened\r\n    modifier canCheckOutcome() {\r\n        require(voting_condition.envelopes_opened == voting_condition.quorum,\r\n                \"Cannot check the winner, need to open all the sent envelopes\");\r\n        _;\r\n    }\r\n\r\n    // State attributes\r\n    // Initialization variables\r\n    address payable public candidate;\r\n    address payable public escrow;\r\n\r\n    // Voting phase variables\r\n    mapping(address => bytes32) envelopes;\r\n\r\n    Conditions voting_condition;\r\n\r\n    uint public naySoul;\r\n    uint public yaySoul;\r\n\r\n    // Refund phase variables\r\n    mapping(address => Refund) souls;\r\n    address payable[] voters;\r\n\r\n    /// @notice The constructor only initializes internal variables\r\n    /// @param _candidate (address) The address of the mayor candidate\r\n    /// @param _escrow (address) The address of the escrow account\r\n    /// @param _quorum (address) The number of voters required to finalize the confirmation\r\n    constructor(address payable _candidate, address payable _escrow, uint32 _quorum) public {\r\n        candidate = _candidate;\r\n        escrow = _escrow;\r\n        voting_condition = Conditions({quorum: _quorum, envelopes_casted: 0, envelopes_opened: 0});\r\n    }\r\n\r\n    /// @notice Store a received voting envelope\r\n    /// @param _envelope The envelope represented as the keccak256 hash of (sigil, doblon, soul)\r\n    function cast_envelope(bytes32 _envelope) canVote public {\r\n        if(envelopes[msg.sender] == 0x0) // checking if already voted, no increment, else increment\r\n            voting_condition.envelopes_casted++;\r\n\r\n        envelopes[msg.sender] = _envelope;\r\n        emit EnvelopeCast(msg.sender);\r\n    }\r\n\r\n    /// @notice Open an envelope and store the vote information\r\n    /// @param _sigil (uint) The secret sigil of a voter\r\n    /// @param _doblon (bool) The voting preference\r\n    /// @dev The soul is sent as crypto\r\n    /// @dev Need to recompute the hash to validate the envelope previously casted\r\n    function open_envelope(uint _sigil, bool _doblon) canOpen public payable {\r\n        require(envelopes[msg.sender] != 0x0, \"The sender has not casted any votes\");\r\n        \r\n        bytes32 _casted_envelope = envelopes[msg.sender];\r\n        bytes32 _sent_envelope = compute_envelope(_sigil, _doblon, msg.value);\r\n\r\n        require(_casted_envelope == _sent_envelope, \"Sent envelope does not correspond to the one casted\");\r\n        souls[msg.sender] = Refund(msg.value, _doblon);\r\n        voters.push(payable(msg.sender)); // Gas = 3\r\n\r\n        if (_doblon == true)\r\n            yaySoul += msg.value;\r\n        else\r\n            naySoul += msg.value;\r\n        \r\n        voting_condition.envelopes_opened++;\r\n        emit EnvelopeOpen(msg.sender, msg.value, _doblon);\r\n    }\r\n\r\n    /// @notice Either confirm or kick out the candidate. Refund the electors who voted for the losing outcome\r\n    // After all envelopes have been opened, the smart contract checks\r\n    // whether the mayor is confirmed or not: in any case, the voters who expressed the losing\r\n    // vote (nay in case of confirmation, yay in case of rejection) get their soul back as refund.\r\n    function mayor_or_sayonara() canCheckOutcome public {\r\n        if (yaySoul > naySoul) {\r\n            uint winner_amount = 0;\r\n            for (uint i = 0; i < voters.length; i++) {\r\n                address payable voter_address = voters[i];\r\n                Refund memory voter = souls[voter_address];\r\n                if (voter.doblon == true)\r\n                    winner_amount += voter.soul;\r\n            }\r\n            candidate.transfer(winner_amount);\r\n            emit NewMayor(candidate);\r\n        } else {\r\n            for (uint i = 0; i < voters.length; i++) {\r\n                address payable user_address = voters[i];\r\n                Refund memory user = souls[user_address];\r\n                if (user.doblon == false)\r\n                    user_address.transfer(user.soul);\r\n            }\r\n            emit Sayonara(escrow);\r\n        }\r\n    }\r\n\r\n    /// @notice Compute a voting envelope\r\n    /// @param _sigil (uint) The secret sigil of a voter\r\n    /// @param _doblon (bool) The voting preference\r\n    /// @param _soul (uint) The soul associated to the vote\r\n    function compute_envelope(uint _sigil, bool _doblon, uint _soul) public pure returns(bytes32) {\r\n        return keccak256(abi.encode(_sigil, _doblon, _soul)); // 30 gas + 6 gas for each 256 bits of data being hashed\r\n    }\r\n}",
  "sourcePath": "C:/eth/contracts/Mayor.sol",
  "compiler": {
    "name": "solc",
    "version": "0.8.4+commit.c7e474f2.Emscripten.clang"
  },
  "schemaVersion": "3.4.1",
  "updatedAt": "2021-05-29T01:19:30.140Z",
  "devdoc": {
    "kind": "dev",
    "methods": {
      "cast_envelope(bytes32)": {
        "params": {
          "_envelope": "The envelope represented as the keccak256 hash of (sigil, doblon, soul)"
        }
      },
      "compute_envelope(uint256,bool,uint256)": {
        "params": {
          "_doblon": "(bool) The voting preference",
          "_sigil": "(uint) The secret sigil of a voter",
          "_soul": "(uint) The soul associated to the vote"
        }
      },
      "constructor": {
        "params": {
          "_candidate": "(address) The address of the mayor candidate",
          "_escrow": "(address) The address of the escrow account",
          "_quorum": "(address) The number of voters required to finalize the confirmation"
        }
      },
      "open_envelope(uint256,bool)": {
        "details": "The soul is sent as cryptoNeed to recompute the hash to validate the envelope previously casted",
        "params": {
          "_doblon": "(bool) The voting preference",
          "_sigil": "(uint) The secret sigil of a voter"
        }
      }
    },
    "version": 1
  },
  "userdoc": {
    "kind": "user",
    "methods": {
      "cast_envelope(bytes32)": {
        "notice": "Store a received voting envelope"
      },
      "compute_envelope(uint256,bool,uint256)": {
        "notice": "Compute a voting envelope"
      },
      "constructor": {
        "notice": "The constructor only initializes internal variables"
      },
      "mayor_or_sayonara()": {
        "notice": "Either confirm or kick out the candidate. Refund the electors who voted for the losing outcome"
      },
      "open_envelope(uint256,bool)": {
        "notice": "Open an envelope and store the vote information"
      }
    },
    "version": 1
  }
}