{
  "contractName": "MayorMultipleCandidates",
  "abi": [
    {
      "inputs": [
        {
          "internalType": "address payable",
          "name": "_escrow",
          "type": "address"
        },
        {
          "internalType": "uint32",
          "name": "_quorum",
          "type": "uint32"
        }
      ],
      "stateMutability": "nonpayable",
      "type": "constructor"
    },
    {
      "anonymous": false,
      "inputs": [
        {
          "indexed": false,
          "internalType": "uint256",
          "name": "count",
          "type": "uint256"
        }
      ],
      "name": "CandidateCounts",
      "type": "event"
    },
    {
      "anonymous": false,
      "inputs": [
        {
          "indexed": false,
          "internalType": "address",
          "name": "_voter",
          "type": "address"
        }
      ],
      "name": "EnvelopeCast",
      "type": "event"
    },
    {
      "anonymous": false,
      "inputs": [
        {
          "indexed": false,
          "internalType": "address",
          "name": "_voter",
          "type": "address"
        },
        {
          "indexed": false,
          "internalType": "uint256",
          "name": "_soul",
          "type": "uint256"
        },
        {
          "indexed": false,
          "internalType": "address",
          "name": "_candidate",
          "type": "address"
        }
      ],
      "name": "EnvelopeOpen",
      "type": "event"
    },
    {
      "anonymous": false,
      "inputs": [
        {
          "indexed": false,
          "internalType": "address",
          "name": "_candidate",
          "type": "address"
        }
      ],
      "name": "NewMayor",
      "type": "event"
    },
    {
      "anonymous": false,
      "inputs": [
        {
          "indexed": false,
          "internalType": "address",
          "name": "_escrow",
          "type": "address"
        }
      ],
      "name": "Sayonara",
      "type": "event"
    },
    {
      "inputs": [
        {
          "internalType": "uint256",
          "name": "",
          "type": "uint256"
        }
      ],
      "name": "candidate_list",
      "outputs": [
        {
          "internalType": "address payable",
          "name": "",
          "type": "address"
        }
      ],
      "stateMutability": "view",
      "type": "function"
    },
    {
      "inputs": [],
      "name": "escrow",
      "outputs": [
        {
          "internalType": "address payable",
          "name": "",
          "type": "address"
        }
      ],
      "stateMutability": "view",
      "type": "function"
    },
    {
      "inputs": [
        {
          "internalType": "address payable",
          "name": "_candidate",
          "type": "address"
        }
      ],
      "name": "add_candidate",
      "outputs": [],
      "stateMutability": "nonpayable",
      "type": "function"
    },
    {
      "inputs": [],
      "name": "get_candidate_count",
      "outputs": [
        {
          "internalType": "uint256",
          "name": "",
          "type": "uint256"
        }
      ],
      "stateMutability": "view",
      "type": "function"
    },
    {
      "inputs": [
        {
          "internalType": "address",
          "name": "_candidate",
          "type": "address"
        }
      ],
      "name": "get_candidate_vote_count",
      "outputs": [
        {
          "internalType": "uint256",
          "name": "",
          "type": "uint256"
        }
      ],
      "stateMutability": "view",
      "type": "function"
    },
    {
      "inputs": [
        {
          "internalType": "bytes32",
          "name": "_envelope",
          "type": "bytes32"
        }
      ],
      "name": "cast_envelope",
      "outputs": [],
      "stateMutability": "nonpayable",
      "type": "function"
    },
    {
      "inputs": [
        {
          "internalType": "uint256",
          "name": "_sigil",
          "type": "uint256"
        },
        {
          "internalType": "address",
          "name": "_candidate",
          "type": "address"
        }
      ],
      "name": "open_envelope",
      "outputs": [],
      "stateMutability": "payable",
      "type": "function"
    },
    {
      "inputs": [
        {
          "internalType": "uint256",
          "name": "idx",
          "type": "uint256"
        }
      ],
      "name": "get_candidate_using_idx",
      "outputs": [
        {
          "internalType": "address",
          "name": "",
          "type": "address"
        }
      ],
      "stateMutability": "view",
      "type": "function"
    },
    {
      "inputs": [],
      "name": "check_winner",
      "outputs": [
        {
          "internalType": "uint256",
          "name": "",
          "type": "uint256"
        },
        {
          "internalType": "address",
          "name": "",
          "type": "address"
        }
      ],
      "stateMutability": "view",
      "type": "function"
    },
    {
      "inputs": [
        {
          "internalType": "uint256",
          "name": "_sigil",
          "type": "uint256"
        },
        {
          "internalType": "address",
          "name": "_candidate",
          "type": "address"
        },
        {
          "internalType": "uint256",
          "name": "_soul",
          "type": "uint256"
        }
      ],
      "name": "compute_envelope",
      "outputs": [
        {
          "internalType": "bytes32",
          "name": "",
          "type": "bytes32"
        }
      ],
      "stateMutability": "pure",
      "type": "function"
    }
  ],
  "bytecode": "0x60806040526007805460ff1916905534801561001a57600080fd5b50604051610bb5380380610bb58339810160408190526100399161009c565b600580546001600160a01b0319166001600160a01b0393909316929092179091556040805160808101825263ffffffff909216808352600060208401819052918301829052606090920152600680546001600160801b03191690911790556100e8565b600080604083850312156100ae578182fd5b82516001600160a01b03811681146100c4578283fd5b602084015190925063ffffffff811681146100dd578182fd5b809150509250929050565b610abe806100f76000396000f3fe6080604052600436106100915760003560e01c8063bab2ec4711610059578063bab2ec4714610154578063c586ff6714610174578063d1244de914610194578063e2fdcc17146101ce578063f174366e146101ee57600080fd5b80631c9a34e3146100965780633ce2c4bf146100b857806343c89d02146100e95780635a26164b146101215780638e57593914610134575b600080fd5b3480156100a257600080fd5b506100b66100b136600461099d565b610220565b005b3480156100c457600080fd5b50600654600160601b900463ffffffff165b6040519081526020015b60405180910390f35b3480156100f557600080fd5b5061010961010436600461099d565b61039b565b6040516001600160a01b0390911681526020016100e0565b6100b661012f3660046109b5565b6103c5565b34801561014057600080fd5b506100b661014f36600461097a565b610667565b34801561016057600080fd5b5061010961016f36600461099d565b6107f6565b34801561018057600080fd5b506100d661018f3660046109e4565b610834565b3480156101a057600080fd5b506100d66101af36600461097a565b6001600160a01b03166000908152600160208190526040909120015490565b3480156101da57600080fd5b50600554610109906001600160a01b031681565b3480156101fa57600080fd5b50610203610874565b604080519283526001600160a01b039091166020830152016100e0565b60065463ffffffff808216640100000000909204161061029f5760405162461bcd60e51b815260206004820152602f60248201527f43616e6e6f7420766f7465206e6f772c20766f74696e672071756f72756d206860448201526e185cc81899595b881c995858da1959608a1b60648201526084015b60405180910390fd5b6006546002600160601b90910463ffffffff16116102ff5760405162461bcd60e51b815260206004820152601d60248201527f4d696e696d756d20332063616e646964617465732072657175697265640000006044820152606401610296565b336000908152600260205260409020546103515760068054640100000000900463ffffffff1690600461033183610a36565b91906101000a81548163ffffffff021916908363ffffffff160217905550505b3360008181526002602090815260409182902084905590519182527f8033de21ae72f21fa8773c90e60e7a5188cb8e44b97f487a5c362a491882ae3491015b60405180910390a150565b600481815481106103ab57600080fd5b6000918252602090912001546001600160a01b0316905081565b600654640100000000810463ffffffff9081169116146104465760405162461bcd60e51b815260206004820152603660248201527f43616e6e6f74206f70656e20616e20656e76656c6f70652c20766f74696e67206044820152751c5d5bdc9d5b481b9bdd081c995858da1959081e595d60521b6064820152608401610296565b336000908152600260205260409020546104ae5760405162461bcd60e51b815260206004820152602360248201527f5468652073656e64657220686173206e6f742063617374656420616e7920766f60448201526274657360e81b6064820152608401610296565b33600090815260026020526040812054906104ca848434610834565b90508082146105375760405162461bcd60e51b815260206004820152603360248201527f53656e7420656e76656c6f706520646f6573206e6f7420636f72726573706f6e60448201527219081d1bc81d1a19481bdb994818d85cdd1959606a1b6064820152608401610296565b6040805180820182523481526001600160a01b038581166020808401828152336000908152808352868120955186559051600195860180546001600160a01b03191691909516179093559082528290529182200180549161059783610a1b565b90915550506001600160a01b038316600090815260016020818152604083206002018054928301815583529091200180546001600160a01b031916331790556006805463ffffffff68010000000000000000909104169060086105f983610a36565b82546101009290920a63ffffffff81810219909316919092169190910217905550604080513381523460208201526001600160a01b0385168183015290517f389bc8f710c058e5d0507e8bd7a82953376bea3c5d11fddd2b31144904c5fc099181900360600190a150505050565b6040518060600160405280826001600160a01b0316815260200160008152602001600067ffffffffffffffff8111156106b057634e487b7160e01b600052604160045260246000fd5b6040519080825280602002602001820160405280156106d9578160200160208202803683370190505b5090526001600160a01b03828116600090815260016020818152604092839020855181546001600160a01b031916951694909417845584810151918401919091559083015180516107309260028501920190610900565b505060068054600160601b900463ffffffff169150600c61075083610a36565b82546101009290920a63ffffffff818102199093169183160217909155600480546001810182556000919091527f8a35acfbc15ff81a39ae7d344fd709f28e8600b4aa8c65c6b64bfe7fe36bd19b0180546001600160a01b0319166001600160a01b038516179055600654604051600160601b90910490911681527f7b57fae952689bfa96cba1e0fd3351cd4afa24782414dbede66b44e5808c2ac89150602001610390565b60006004828154811061081957634e487b7160e01b600052603260045260246000fd5b6000918252602090912001546001600160a01b031692915050565b604080516020808201959095526001600160a01b039390931683820152606080840192909252805180840390920182526080909201909152805191012090565b6000808080805b6004548110156108f6576000600482815481106108a857634e487b7160e01b600052603260045260246000fd5b60009182526020808320909101546001600160a01b031680835260019182905260409092200154909150848111156108e1578094508193505b505080806108ee90610a1b565b91505061087b565b5090939092509050565b828054828255906000526020600020908101928215610955579160200282015b8281111561095557825182546001600160a01b0319166001600160a01b03909116178255602090920191600190910190610920565b50610961929150610965565b5090565b5b808211156109615760008155600101610966565b60006020828403121561098b578081fd5b813561099681610a70565b9392505050565b6000602082840312156109ae578081fd5b5035919050565b600080604083850312156109c7578081fd5b8235915060208301356109d981610a70565b809150509250929050565b6000806000606084860312156109f8578081fd5b833592506020840135610a0a81610a70565b929592945050506040919091013590565b6000600019821415610a2f57610a2f610a5a565b5060010190565b600063ffffffff80831681811415610a5057610a50610a5a565b6001019392505050565b634e487b7160e01b600052601160045260246000fd5b6001600160a01b0381168114610a8557600080fd5b5056fea26469706673582212200f0acaf45db158b92c95975014781481243a61f3901f52240ca30c400b2793c764736f6c63430008040033",
  "immutableReferences": {},
  "source": "// SPDX-License-Identifier: MIT\r\npragma solidity 0.8.4;\r\n\r\ncontract MayorMultipleCandidates {\r\n\r\n    struct Conditions {\r\n        uint32 quorum;\r\n        uint32 envelopes_casted;\r\n        uint32 envelopes_opened;\r\n        uint32 candidate_count;\r\n    }\r\n    \r\n    struct Refund {\r\n        uint soul;\r\n        address _candidate;\r\n    }\r\n\r\n    struct Candidate {\r\n        address payable id;\r\n        uint vote_count;\r\n        address payable[] voters;\r\n    }\r\n\r\n    event CandidateCounts(uint count);\r\n    event NewMayor(address _candidate);\r\n    event Sayonara(address _escrow);\r\n    event EnvelopeCast(address _voter);\r\n    event EnvelopeOpen(address _voter, uint _soul, address _candidate);\r\n    \r\n    // address payable[] candidates;\r\n    mapping(address => Refund) souls;\r\n    mapping(address => Candidate) candidates;\r\n    mapping(address => bytes32) envelopes;\r\n    mapping(address => uint) vote_counts;\r\n    address payable[] public candidate_list;\r\n    address payable public escrow;\r\n    // address payable[] voters;\r\n    \r\n    Conditions voting_condition;\r\n    bool private flag = false;\r\n\r\n    \r\n    modifier canVote() {\r\n        require(voting_condition.envelopes_casted < voting_condition.quorum,\r\n                \"Cannot vote now, voting quorum has been reached\");\r\n        _;\r\n    }\r\n    modifier canOpen() {\r\n        require(voting_condition.envelopes_casted == voting_condition.quorum,\r\n                \"Cannot open an envelope, voting quorum not reached yet\");\r\n        _;\r\n    }\r\n    modifier canCheckOutcome() {\r\n        require(voting_condition.envelopes_opened == voting_condition.quorum,\r\n                \"Cannot check the winner, need to open all the sent envelopes\");\r\n        _;\r\n    }\r\n\r\n\r\n    constructor(address payable _escrow, uint32 _quorum) public {\r\n        escrow = _escrow;\r\n        voting_condition = Conditions({quorum: _quorum, envelopes_casted: 0, envelopes_opened: 0, candidate_count: 0});\r\n    }\r\n\r\n    function add_candidate(address payable _candidate) public {\r\n        candidates[_candidate] = Candidate({ id: payable(_candidate), vote_count: 0, voters: new address payable[](0)});\r\n        voting_condition.candidate_count++;\r\n        candidate_list.push(_candidate);\r\n        emit CandidateCounts(voting_condition.candidate_count);\r\n    }\r\n\r\n    function get_candidate_count() public view returns(uint) {\r\n        return voting_condition.candidate_count;\r\n    }\r\n\r\n    function get_candidate_vote_count(address _candidate) public view returns(uint) {\r\n        return candidates[_candidate].vote_count;\r\n    }\r\n\r\n    function cast_envelope(bytes32 _envelope) canVote public {\r\n        require(voting_condition.candidate_count > 2, \"Minimum 3 candidates required\");\r\n        \r\n        if(envelopes[msg.sender] == 0x0) // checking if already voted, no increment, else increment\r\n            voting_condition.envelopes_casted++;\r\n\r\n        envelopes[msg.sender] = _envelope;\r\n        emit EnvelopeCast(msg.sender);\r\n    }\r\n\r\n    function open_envelope(uint _sigil, address _candidate) canOpen public payable {\r\n        require(envelopes[msg.sender] != 0x0, \"The sender has not casted any votes\");\r\n        \r\n        bytes32 _casted_envelope = envelopes[msg.sender];\r\n        bytes32 _sent_envelope = compute_envelope(_sigil, _candidate, msg.value);\r\n\r\n        require(_casted_envelope == _sent_envelope, \"Sent envelope does not correspond to the one casted\");\r\n        souls[msg.sender] = Refund(msg.value, _candidate);\r\n\r\n        candidates[_candidate].vote_count++;\r\n        candidates[_candidate].voters.push(payable(msg.sender));\r\n\r\n        // if (_doblon == true)\r\n        //     yaySoul += msg.value;\r\n        // else\r\n        //     naySoul += msg.value;\r\n        \r\n        voting_condition.envelopes_opened++;\r\n        emit EnvelopeOpen(msg.sender, msg.value, _candidate);\r\n    }\r\n\r\n    function get_candidate_using_idx(uint idx) public view returns(address) {\r\n        return candidate_list[idx];\r\n    }\r\n\r\n    function check_winner() public view returns(uint, address) {\r\n        uint winningVoteCount = 0;\r\n        address payable winner;\r\n        for (uint p = 0; p < candidate_list.length; p++) {\r\n            address payable candidate_address = candidate_list[p];\r\n            uint vote_count = candidates[candidate_address].vote_count;\r\n\r\n            if (vote_count > winningVoteCount) {\r\n                winningVoteCount = vote_count;\r\n                winner = candidate_address;\r\n            }\r\n        }\r\n\r\n        return (winningVoteCount, winner);\r\n    }\r\n\r\n    // function mayor_or_sayonara() canCheckOutcome  public {\r\n    //     require(flag == false, \"The function can be called only for a single time.\");\r\n\r\n    //     flag = true;\r\n    //     if (yaySoul > naySoul) {\r\n    //         uint winner_amount = 0;\r\n    //         for (uint i = 0; i < voters.length; i++) {\r\n    //             address payable voter_address = voters[i];\r\n    //             Refund memory voter = souls[voter_address];\r\n    //             if (voter.doblon == true)\r\n    //                 winner_amount += voter.soul;\r\n    //         }\r\n    //         candidate.transfer(winner_amount);\r\n    //         emit NewMayor(candidate);\r\n    //     } else {\r\n    //         for (uint i = 0; i < voters.length; i++) {\r\n    //             address payable user_address = voters[i];\r\n    //             Refund memory user = souls[user_address];\r\n    //             if (user.doblon == false)\r\n    //                 user_address.transfer(user.soul);\r\n    //         }\r\n    //         emit Sayonara(escrow);\r\n    //     }\r\n    // }\r\n    \r\n    function compute_envelope(uint _sigil, address _candidate, uint _soul) public pure returns(bytes32) {\r\n        return keccak256(abi.encode(_sigil, _candidate, _soul)); // 30 gas + 6 gas for each 256 bits of data being hashed\r\n    }\r\n\r\n    \r\n}",
  "sourcePath": "C:/eth/contracts/MayorMultipleCandidates.sol",
  "compiler": {
    "name": "solc",
    "version": "0.8.4+commit.c7e474f2.Emscripten.clang"
  },
  "schemaVersion": "3.4.1",
  "updatedAt": "2021-06-08T20:56:10.711Z",
  "devdoc": {
    "kind": "dev",
    "methods": {},
    "version": 1
  },
  "userdoc": {
    "kind": "user",
    "methods": {},
    "version": 1
  }
}